:020000040800F2
:10000000FCFF0020CD170000C5170000C517000039
:10001000C5170000C5170000C5170000C517000070
:10002000C5170000C5170000C5170000C517000060
:10003000C5170000C5170000C5170000C517000050
:10004000C5170000C5170000C5170000C517000040
:10005000C5170000C5170000C5170000C517000030
:10006000C5170000C5170000C5170000C517000020
:10007000C5170000C5170000C5170000C517000010
:10008000C5170000C5170000C5170000C517000000
:10009000C5170000C5170000C5170000C5170000F0
:1000A000C5170000C5170000C5170000C5170000E0
:1000B000C5170000C5170000C5170000C5170000D0
:1000C000C5170000C5170000C5170000C5170000C0
:1000D000C5170000C5170000C5170000C5170000B0
:1000E000C5170000C5170000C5170000C5170000A0
:1000F000C5170000C5170000C5170000C517000090
:10010000C5170000C5170000C5170000C51700007F
:10011000C5170000C5170000C5170000C51700006F
:10012000C5170000C5170000C5170000C51700005F
:10013000C5170000C5170000C5170000C51700004F
:10014000C5170000C5170000C5170000C51700003F
:1001500081B00248006801B0704700BFA0000020D5
:1001600083B0CDF800E000F0FF031A09104603F059
:100170000F02134614E0194A02921FE0184A029235
:100180001CE0184A029219E0174A029216E0174A38
:10019000029213E0164A029210E0164A02920DE013
:1001A0000028E8D00128E9D00228EAD00328EBD0C3
:1001B0000428ECD00528EDD00628EED0012212B29A
:1001C0009A40ADF8042002980A46BDF8041000F0E9
:1001D0000BFBDDF800E003B0704700BF00080140F2
:1001E000000C0140001001400014014000180140C3
:1001F000001C01400020014081B0194900EA0101C2
:10020000084600220EE0042022E0082020E0102012
:100210001EE020201CE040201AE0802018E040F280
:10022000001015E00F498842EDD00F498842ECD00C
:100230000E498842EBD00E498842EAD00D498842E7
:10024000E9D00D498842E8D00C498842E7D01046F1
:100250000B49096841EA000209490A6001B0704788
:1002600000FCFFFF00080140000C014000100140AD
:100270000014014000180140001C01400020014012
:100280001810024082B0CDF800E0034619460191F3
:10029000FFF75EFF40F2E83100FB01F201990A60CE
:1002A0001F490978C1F30311C8B21E49091808781B
:1002B000C0B21A1D1968C140116019490988C1F3FB
:1002C000022188B2174909180878C0B203F208025F
:1002D000191D0968C140116011490988C1F3C22183
:1002E00088B2104909180878C0B203F20C02191D2F
:1002F0000968C14011600A490988C1F3813188B297
:10030000094909180978C8B203F2100203F20C0176
:100310000968B1FBF0F11160DDF800E002B0704750
:1003200004100240CC1B0000EA16000081B0ADF8BA
:1003300000100146BDF800000B68C3F3C01202B9FB
:10034000FAE70A1D106001B07047FFFF81B000F2AC
:100350000C02116000F208021368C3F3000202B934
:10036000F8E700F20C02126890B201B07047FFFF8C
:1003700081B0CDF800E081B20348FFF7D7FFDDF888
:1003800000E001B0704700BF004C004081B0CDF8E4
:1003900000E081B20348FFF7C9FFDDF800E001B0DB
:1003A000704700BF0048004081B0CDF800E081B246
:1003B0000348FFF7CBFFDDF800E001B0704700BF56
:1003C0000038004081B000230360CB009BB242EABA
:1003D000030304689BB244EA03030360051D13147E
:1003E0001C462B6864F382032B6000F21C0500247A
:1003F0002B6864F3CB232B600124036864F386131A
:10040000036001B07047FFFF89B0CDF800E083467C
:1004100098B28C46BDF824100A9E04ACADF80410C6
:10042000ADF808002046FFF72DFFBDF80800BDF825
:100430000410644CA34512D101256DB2624C2560B5
:10044000624D634C2560634D634C2560634D644C85
:100450002560644D644C2560079C039456E0634C12
:10046000A34512D101256DB2614C2560614D584CF8
:100470002560614D584C2560604D594C2560604D9C
:10048000594C2560069C039440E05E4CA34512D174
:1004900001256DB25C4C25605C4D4D4C25605C4D7A
:1004A0004D4C25605B4D4E4C25605B4D4E4C2560A0
:1004B000069C03942AE0594CA34512D101256DB244
:1004C000574C2560574D424C2560574D424C256096
:1004D000564D434C2560564D434C2560069C039475
:1004E00014E0544CA34511D101256DB2524C256046
:1004F000524D374C2560524D374C2560514D384C8C
:100500002560514D384C2560069C0394ADF80410CD
:10051000ADF80800304600F0C3F8BDF80800BDF89B
:1005200004100BF1100500242C600BF110052C6851
:100530000C432C600BF10C0500242C6018B140F426
:10054000806080B2FFE70BF10C052C6804432C603F
:100550000BF10C060125346865F34D3434600BF162
:100560000C060125346865F3C30434600BF10C06F6
:100570000125346865F3820434600BF1140500240E
:100580002C60039D192465434FEA8C04B5FBF4F7F6
:100590006424B7FBF4F42601350964246C433C1B46
:1005A000240104F232056424B5FBF4F404F00F04D2
:1005B00046EA04040BF10805A4B22C60DDF800E063
:1005C00009B07047003801403803424285060000F8
:1005D000AC000020FFFFFFFFB0000020FFFFFFFF87
:1005E000B4000020FFFFFFFFB800002000440040DF
:1005F000C403424269060000FFFFFFFFFFFFFFFF49
:10060000FFFFFFFF00480040C80342428D03000087
:10061000FFFFFFFFFFFFFFFFFFFFFFFF004C00405A
:10062000CC03424271030000FFFFFFFFFFFFFFFF0B
:10063000FFFFFFFF00500040D0034242F9090000D5
:10064000FFFFFFFFFFFFFFFFFFFFFFFF81B0CDF8C0
:1006500000E081B20348FFF779FEDDF800E001B069
:10066000704700BF003C004081B0CDF800E081B28F
:100670000348FFF75BFEDDF800E001B0704700BF04
:100680000044004081B0CDF800E081B20348FFF79C
:100690004DFEDDF800E001B0704700BF00380140BA
:1006A00081B0CDF800E0012252B23E490A6000F26A
:1006B00068010B686FF0006103EA0102144603F061
:1006C0000061C90E0B4602F00041B1F1004F02D1AA
:1006D00035490A6801E035490A6804F47021090CBB
:1006E0000E464FF6FF7104EA01010D4604F4401175
:1006F000B1F5401F0DD16FF0706102EA01010E46A5
:100700002A490A686FF070610A4028490A60324637
:1007100016E004F48011B1F5801F09D14FF00301F8
:10072000B140C94302EA010141F070610A4607E0A5
:10073000610D090105FA01F1C9430A4042F07062F6
:100740002BB1610D090105FA01F10A43FFE704F03D
:100750000041B1F1004F02D113490A6001E0134991
:100760000A6040F2000A81464FEA8A0109EB010162
:100770000968B1F1FF3F10D009F134014FEA8A0353
:10078000C91809680A4609EB0301096808461146B9
:10079000FFF7E6FC0AF1010AE6E7DDF800E001B048
:1007A000704700BF000342421C00014004000140AA
:1007B00081B0CDF800E081B20348FFF7C7FDDDF856
:1007C00000E001B0704700BF0030014081B0CDF8BB
:1007D00000E081B20348FFF7B9FDDDF800E001B0A9
:1007E000704700BF0030014081B0CDF800E08CB20E
:1007F0001546774B00EA03031E461846FFF7FCFC3C
:10080000B4F1FF0F0CD1734B9D4203D14FF0333342
:100810003360D9E0422D03D14FF044333360D3E04D
:100820004FF6FF739C4214D16A4B9D4207D14FF0A3
:1008300033333360341D4FF033332360C4E0422D33
:1008400007D14FF044333360341D4FF044332360FD
:10085000BAE00021002005F001030BB100211DE0EA
:1008600005F0020333B105F4C0730BB1082100E0B9
:10087000042113E005F0040333B105F020030BB1AC
:10088000042100E0002109E005F0080333B105F080
:1008900020030BB10C2100E00821FFE74E4B05EAD5
:1008A00003030BB1032009E005F400730BB1022030
:1008B00004E005F480630BB10120FFE705F00C03B1
:1008C0000BB10143FFE704F0FF039BB2002B3BD0C9
:1008D000376800201FFA84F832462E4608282CD2AA
:1008E0004FF0010303FA00F408EA0403A34222D103
:1008F00085004FF00F03AB40DB4307EA030401FA26
:1009000005F344EA03031D4606F48173B3F5817FC2
:1009100005D102F214044FF001038340236006F076
:100920008203822B05D102F210044FF001038340B1
:1009300023602F46FFE7401CD0E717601FFA88F0BE
:100940000F463146164602E00F462946A0B2B0F1E6
:10095000FF0F39D9331DD3F800800022082A30D286
:1009600002F208044FF0010303FA04F400EA04035E
:10097000A34224D195004FF00F03AB40DB4308EABC
:10098000030807FA05F348EA030801F48173B3F595
:10099000817F07D106F2140502F208044FF001032B
:1009A000A3402B6001F08203822B07D106F21005D1
:1009B00002F208044FF00103A3402B60FFE7521C32
:1009C000CCE7331DC3F80080DDF800E001B07047CC
:1009D00000FCFFFF140008000008080081B0CDF8FB
:1009E00000E081B20348FFF7B1FCDDF800E001B0A0
:1009F000704700BF0038004081B0CDF800E081B200
:100A00000348FFF793FCDDF800E001B0704700BF3A
:100A10000050004081B0CDF800E081B20348FFF7FC
:100A200095FCDDF800E001B0704700BF003C0040DD
:100A300081B0CDF800E0019D2C4610B408B493B20B
:100A40008AB201460348FFF7DFFC02B0DDF800E0A0
:100A500001B070470044004083B0CDF800E08AB296
:100A6000014690B283B2421E90B26BB10A78D4B202
:100A7000ADF804000291A0B2054C2468A047029989
:100A8000BDF80400491CEDE7DDF800E003B0704755
:100A90009800002081B0CDF800E0019D2C4610B4F4
:100AA00008B493B28AB201460348FFF7ADFC02B026
:100AB000DDF800E001B070470038014083B0CDF8A8
:100AC00000E08DF8040002910B4C0C4B1C600C4CA8
:100AD0000C4B1C60012464B20B4B1C601046FFF7EA
:100AE000DFFD029A9DF804100848FFF76BFCDDF863
:100AF00000E003B0704700BF4D060000A4000020D6
:100B0000150A0000A8000020BC034242003C00403F
:100B100083B0CDF800E0ADF808100190BDF80830C2
:100B2000BDF80820521EADF808204BB10020064C3D
:100B30002468A047019A1070019A521C0192EDE7B7
:100B4000DDF800E003B070479C00002081B0CDF8D4
:100B500000E0019D2C4610B408B493B28AB201465D
:100B60000348FFF751FC02B0DDF800E001B0704728
:100B70000048004081B0CDF800E04FF0420289B259
:100B8000FFF732FEDDF800E001B0704781B0CDF82C
:100B900000E0044A89B2FFF727FEDDF800E001B06B
:100BA000704700BF1400080081B00249086001B01E
:100BB000704700BFAC01224281B00249086001B019
:100BC000704700BFB081224281B00249086001B085
:100BD000704700BFB081224281B00249086001B075
:100BE000704700BFB001224281B00249086001B0E5
:100BF000704700BF8C01224281B00249086001B0F9
:100C0000704700BF9401214281B00249086001B0E1
:100C1000704700BFA801224281B00249086001B0BC
:100C2000704700BFB881224281B00249086001B01C
:100C3000704700BF9881224282B0CDF800E001A940
:100C40000520087000200B4C2468A04701A8012152
:100C5000FFF702FF01A80121FFF75AFF0120054C11
:100C60002468A04701A8007800F00100DDF800E04A
:100C700002B070479400002082B0CDF800E001ABD4
:100C8000032119705A1C010C01F0FF01C9B2117047
:100C90009A1C010A01F0FF01C9B21170DA1C00F0C0
:100CA000FF01C9B2117000200B4C2468A04701A9B4
:100CB00008460421FFF7D0FE01A908460121FFF7ED
:100CC00027FF0120044C2468A04701A90978C8B275
:100CD000DDF800E002B070479400002083B0CDF84A
:100CE00000E001AC02222270631C0A0C02F0FF0239
:100CF000D2B21A70A31C0A0A02F0FF02D2B21A7012
:100D0000E31C01F0FF02D2B21A70221D107000F035
:100D100037F80020094C2468A04701AA0521104695
:100D2000FFF79AFE0120054C2468A047FFF784FFD7
:100D300000B1FBE7DDF800E003B07047940000204D
:100D400081B0CDF800E00178CCB2A0B2034C2468A9
:100D5000A0470020DDF800E001B0704790000020BF
:100D600081B00249086001B0704700BF98812142FC
:100D700081B00249086001B0704700BF94812242EF
:100D800082B0CDF800E001A9062008700020074CD1
:100D90002468A04701A80121FFF75EFE0120034C53
:100DA0002468A047DDF800E002B0704794000020FE
:100DB00081B00249086001B0704700BF9C812142A8
:100DC00081B0CDF800E0094902B440F2000340F2DE
:100DD000000240F20001FFF72BFE01B0044A054972
:100DE0000A600020DDF800E001B07047281A00001A
:100DF000690600009000002081B0CDF800E00949AC
:100E000002B440F2000340F2000240F20001FFF79A
:100E100041FE01B0044A05490A600020DDF800E007
:100E200001B07047941A0000850600009000002071
:100E300081B0026803490A60011D0A6802490A601C
:100E400001B07047980000209C00002081B002494A
:100E5000086001B0704700BF9001214281B000F2EC
:100E600008010A6801490A6001B070479400002037
:100E700081B0CDF800E0094902B440F2000340F22D
:100E8000000240F20001FFF7D3FD01B0044A05491A
:100E90000A600020DDF800E001B07047281A000069
:100EA000690600009000002081B0CDF800E0A9E0C4
:100EB000012905D140F220016548FFF75BFE04E0FF
:100EC00040F220016248FFF761FEBBE0012905D135
:100ED00040F208015F48FFF74DFE04E040F20801D0
:100EE0005C48FFF753FEADE0012905D144F2000153
:100EF0005948FFF73FFE04E044F200015648FFF76F
:100F000045FE9FE0012905D140F200415148FFF71D
:100F100031FE04E040F200414E48FFF737FE91E019
:100F2000012905D140F600014A48FFF723FE04E0FD
:100F300040F600014748FFF729FE83E0012905D16B
:100F400041F200014348FFF715FE04E041F20001C1
:100F50004048FFF71BFE75E0012905D141F2000171
:100F60003D48FFF707FE04E041F200013A48FFF771
:100F70000DFE67E0012905D140F600013648FFF774
:100F8000F9FD04E040F600013348FFF7FFFD59E0AA
:100F9000012905D140F240012F48FFF7EBFD04E0A5
:100FA00040F240012C48FFF7F1FD4BE0012905D14B
:100FB00040F220012848FFF7DDFD04E040F2200167
:100FC0002548FFF7E3FD3DE0012905D140F240014E
:100FD0002248FFF7CFFD04E040F240011F48FFF731
:100FE000D5FD2FE0012905D140F280011B48FFF714
:100FF000C1FD04E040F280011848FFF7C7FD21E081
:10100000012020E000283FF453AF01283FF45EAFF9
:1010100002283FF469AF03283FF474AF04283FF47B
:101020007FAF05283FF48AAF06283FF495AF072825
:10103000A0D00828ACD00928B8D00A28C4D00B28E2
:10104000D0D0DDE70020DDF800E001B0704700BF40
:10105000000801400010014000140140000C014054
:1010600081B0CDF800E0A9E0012905D140F21001DE
:101070006548FFF77FFD04E040F210016248FFF78A
:1010800085FDBBE0012905D140F204015F48FFF76F
:1010900071FD04E040F204015C48FFF777FDADE02C
:1010A000012905D142F200015948FFF763FD04E030
:1010B00042F200015648FFF769FD9FE0012905D182
:1010C00040F200415148FFF755FD04E040F2004175
:1010D0004E48FFF75BFD91E0012905D140F6000184
:1010E0004A48FFF747FD04E040F600014748FFF794
:1010F0004DFD83E0012905D141F200014348FFF78E
:1011000039FD04E041F200014048FFF73FFD75E082
:10111000012905D140F201013B48FFF72BFD04E016
:1011200040F201013848FFF731FD67E0012905D1A0
:1011300040F200413648FFF71DFD04E040F2004157
:101140003348FFF723FD59E0012905D140F2002182
:101150002F48FFF70FFD04E040F200212C48FFF775
:1011600015FD4BE0012905D140F200112848FFF799
:1011700001FD04E040F200112548FFF707FD3DE0C6
:10118000012905D140F240012248FFF7F3FC04E0B9
:1011900040F240011F48FFF7F9FC2FE0012905D17B
:1011A00040F280011B48FFF7E5FC04E040F28001BB
:1011B0001848FFF7EBFC21E0012020E000283FF475
:1011C00053AF01283FF45EAF02283FF469AF032814
:1011D0003FF474AF04283FF47FAF05283FF48AAF93
:1011E00006283FF495AF0728A0D00828ACD00928DE
:1011F000B8D00A28C4D00B28D0D0DDE70020DDF815
:1012000000E001B0704700BF00080140001001403D
:1012100000140140000C014081B0CDF800E0011D38
:101220000A680168C8B21146034AFFF747FC00206C
:10123000DDF800E001B07047001B000081B0CDF880
:1012400000E0094902B440F2000340F2000240F21B
:101250000001FFF77BFC01B0044A05490A60002049
:10126000DDF800E001B07047BC1900008D030000FC
:101270009000002081B0CDF800E0011D0A680168EF
:10128000C8B21146034AFFF719FC0020DDF800E060
:1012900001B07047001B000081B00249086001B036
:1012A000704700BF8001214281B00249086001B04F
:1012B000704700BFA881224281B00249086001B096
:1012C000704700BFAC01224281B00249086001B002
:1012D000704700BFB001224281B00249086001B0EE
:1012E000704700BF9881214281B00249086001B077
:1012F000704700BF9C81214281B00249086001B063
:10130000704700BFA481224281B00249086001B049
:10131000704700BFA081224281B00249086001B03D
:10132000704700BFB481224281B00249086001B019
:10133000704700BF8801224281B00249086001B0B5
:10134000704700BFA801224281B0CDF800E05FFAEB
:1013500081F95FFA82FA0FE05FFA8AF15FFA89F0A9
:10136000FFF77EFE0DE05FFA8AF15FFA89F0FFF782
:101370009BFD06E0012004E00028EDD00128F2D01A
:10138000F8E7DDF800E001B07047FFFF84B0CDF86A
:1013900000E0ADF80C20029101AD03232B706C1C12
:1013A000030C03F0FF03DBB22370AC1C030A03F051
:1013B000FF03DBB22370EC1C00F0FF03DBB22370F1
:1013C00000200A4C2468A04701AB04211846FFF70F
:1013D00043FBBDF80C100298FFF79AFB0120034C69
:1013E0002468A047DDF800E004B0704794000020B6
:1013F0008AB0CDF800E004900591ADF81820049B68
:101400000193059B02930023ADF80C30BDF8184002
:10141000BDF80C30A34211D2029B1B780199D8B2BF
:10142000FFF75CFC029B5B1C0293019B5B1C01931E
:10143000BDF80C305B1CADF80C30E7E70023ADF8CD
:101440000C30BDF81840BDF80C30A34218D2059BF3
:101450001B788DF824300498FFF70EFC9DF824309B
:10146000834201D000200CE0059B5B1C0593049B8C
:101470005B1C0493BDF80C305B1CADF80C30E0E74E
:101480000120DDF800E00AB07047FFFF83B0CDF81F
:1014900000E0024610460D228DF808200A228DF841
:1014A00009201FE0FFF74CFC23E002782AB10190ED
:1014B000FFF746FC0198401CF7E71AE002782AB1D2
:1014C0000190FFF73DFC0198401CF7E702AA104687
:1014D000FFF736FC0DF109021046FFF731FC08E07A
:1014E000062007E00029DDD00129DED00229E5D061
:1014F000F6E70020DDF800E003B0704781B0CDF8DA
:1015000000E08B4609E05846FFF786FE0AE05846A1
:10151000FFF7B0FE06E0012004E00028F3D0012828
:10152000F5D0F8E7DDF800E001B0704781B0CDF804
:1015300000E011E00846FFF781FE16E00846FFF7DD
:1015400097FC12E00846FFF757FC0EE00846FFF74D
:1015500037FC0AE0012008E00028EBD00128EDD09C
:101560002028EFD03028F1D0F4E7DDF800E001B01A
:101570007047FFFF81B0CDF800E003460846FFF753
:1015800057FC1846FFF76AFCDDF800E001B0704731
:1015900081B0CDF800E00120034C2468A047DDF8BD
:1015A00000E001B0704700BF9400002082B0CDF889
:1015B00000E001ABD82119705A1C010C01F0FF01A9
:1015C000C9B211709A1C010A01F0FF01C9B2117071
:1015D000DA1C00F0FF01C9B21170FFF7D1FB002047
:1015E000094C2468A04701A908460421FFF734FAF2
:1015F0000120054C2468A047FFF71EFB00B1FBE764
:10160000DDF800E002B070479400002081B01CF8C3
:10161000019B0BF8019BBBEB0A0FF8D101B070479F
:1016200081B0CDF800E005490548FFF7A3FFFFF7BB
:10163000AFFFDDF800E001B0704700BFE41B000021
:101640006C1B000081B01548006840F00101134890
:1016500001601349134801601048016812480140B5
:101660000E4801600D4801686FF4802001400B486E
:1016700001600C4801686FF4FE00014009480160F8
:10168000064801686FF0A0500140044801604FF027
:1016900000010648016001B0704700BF0010024021
:1016A0000000FFF004100240FFFFF6FE2C10024085
:1016B00081B04FF000094FF0000CBDEB0A0F04DCC5
:1016C000BDEB0B0F01DBD446EA464BF8049BBBEBAA
:1016D0000A0FFAD1BCEB0A0F05DDE246D9F800B0DB
:1016E0000BF1040BF1E701B0704702040608FFFF9D
:1016F00081B0CDF800E0002202210020FFF724FE97
:101700000C4801460020FFF7F9FE42F280512020EC
:10171000FFF70CFF44F67F77C0F2120700BF00BF4F
:101720007F1EFDD100BF00BF00BFDDF800E001B0AB
:10173000704700BFDC1B000081B0CDF800E0164808
:10174000FFF734FF15480221FFF7A0FE09221449D4
:101750001148FFF74DFE13480221FFF797FE0922BB
:1017600011490D48FFF712FE10480121FFF78EFEC8
:1017700002210D48FFF78AFE41F6FF27C0F2B707A6
:101780007F1EFDD100BF00BF00BF00BF00BFDDF85E
:1017900000E001B0704700BF1550010000000020BC
:1017A0003800002042000020860000207A0000203F
:1017B00081B002490248016001B070474019010040
:1017C000A000002081B0FEE701B0704781B000F0BA
:1017D0000FF800F04BFAFFF7EBFF00F007FAFFF706
:1017E00087FFFFF71DFFFFF7A7FFFCE7FEE7FFFFFF
:1017F00081B0CDF800E0464A464B474C47494BF68E
:101800008030814206D94648006840F002014448D1
:10181000016011E045F6C050814206D94048006899
:1018200040F001013E48016006E03D4801686FF06C
:10183000070001403A480160FFF704FF39480360A0
:1018400039480460394802EA00013948016002F071
:10185000010040B119463648006800F00200002837
:1018600000D1F8E700E0194602F4803040B10B46A1
:101870002F48006800F40030002800D1F8E700E0AD
:101880000B4602F0805068B12948006840F0805152
:10189000274801602648006800F00050002800D169
:1018A000F8E7FFE702F0806078B12148006840F077
:1018B00080611F48016011461A461D48006800F00B
:1018C0000060002800D1F8E701E011461A4601F057
:1018D000807070B11648006840F080711448016053
:1018E00011461348006800F0007000B9F9E70A4695
:1018F000FFE70C48006800F00C01900000F00C00BD
:10190000814200D0F5E7DDF800E001B0704700BF8C
:101910008100010502841D004406010040190100F8
:1019200000200240041002402C100240FFFF0F0074
:101930000010024057726974696E67204D696B72BE
:101940006F4520746F2020466C617368206D656D53
:101950006F72792C2066726F6D206164647265739A
:10196000732030783031353031353A004D696B7243
:101970006F450D0A000052656164696E6720392069
:101980006279746573206F6620466C617368206DA0
:10199000656D6F72792C2066726F6D206164647260
:1019A0006573732030783031353031353A00446119
:1019B000746120726561643A2000FFFF3800000006
:1019C00039000000FFFFFFFF0000000000000000E2
:1019D0000000000000000000000000000000000007
:1019E00000000000000000000000000000000000F7
:1019F00018080000180000000000000000000000AF
:101A000000000000000000000000000000000000D6
:101A100000000000000000000000000000000000C6
:101A200000000000300014083500000036000000FF
:101A3000FFFFFFFF000000000000000000000000AA
:101A40000000000000000000000000000000000096
:101A50000000000000000000000000001808000066
:101A6000180000000000000000000000000000005E
:101A70000000000000000000000000000000000066
:101A80000000000000000000000000000000000056
:101A900008000008090000000A000000FFFFFFFF27
:101AA0000000000000000000000000000000000036
:101AB0000000000000000000000000000000000026
:101AC00000000000000000001808000018000000DE
:101AD0000000000000000000000000000000000006
:101AE00000000000000000000000000000000000F6
:101AF00000000000000000000000000004000000E2
:101B00002A0000002B0000002C000000FFFFFFFF58
:101B100000000000000000000000000000000000C5
:101B200000000000000000000000000000000000B5
:101B30000000000018080000180800001808000045
:101B40000000000000000000000000000000000095
:101B50000000000000000000000000000000000085
:101B60000000000000000000001120084D0E0000E1
:101B7000291300001913000039130000B9120000E6
:101B8000C912000099120000A9120000F912000009
:101B900009130000D9120000E9120000FFFFFFFF47
:101BA000FFFFFFFFFFFFFFFFFFFFFFFFFFFFFFFF45
:101BB000FFFFFFFFFFFFFFFFFFFFFFFFFFFFFFFF35
:101BC000FFFFFFFFFFFFFFFFFFFFFFFF0000000021
:101BD00001020304010203040607080907000000CC
:101BE00004030000150A00004D06000000B5DFF8F0
:101BF00014B0DFF814A0DFF814C0FFF707FD00BD34
:101C0000704700BF0000002086000020341900004B
:101C1000FFFFFFFFFFFFFFFFFFFFFFFFFFFFFFFFD4
:101C2000FFFFFFFFFFFFFFFFFFFFFFFFFFFFFFFFC4
:101C3000FFFFFFFFFFFFFFFFFFFFFFFFFFFFFFFFB4
:101C4000FFFFFFFFFFFFFFFFFFFFFFFFFFFFFFFFA4
:101C5000FFFFFFFFFFFFFFFFFFFFFFFFFFFFFFFF94
:101C6000FFFFFFFFFFFFFFFFFFFFFFFF00B5DFF8F4
:101C700010B0DFF810A0FFF71BFD00BD704700BFDC
:101C800000000020BC000020FFFFFFFFFFFFFFFF60
:00000001FF
